:020000040800F2
:1000000000280020DD090008810900088709000890
:100010008D090008930900089909000800000000F4
:100020000000000000000000000000009F09000820
:10003000AB09000800000000B7090008C309000868
:10004000250A0008250A0008250A0008250A0008D4
:10005000250A0008250A0008250A0008250A0008C4
:10006000250A0008250A0008250A0008250A0008B4
:10007000250A0008250A0008250A0008250A0008A4
:10008000250A0008250A0008250A0008250A000894
:10009000250A0008250A0008250A0008250A000884
:1000A000250A0008250A0008250A0008250A000874
:1000B000250A0008250A000800000000250A00089B
:1000C000250A00080000000000000000250A0008C2
:1000D00000000000250A0008250A000800000000B2
:1000E000250A0008250A0008250A0008000000006B
:1000F0000000000000000000000000000000000000
:0C01000000000000000000005FF808F1A3
:10010C0010B5054C237833B9044B13B10448AFF345
:10011C0000800123237010BD0C00002000000000A3
:10012C004C18000808B5034B1BB103490348AFF347
:10013C00008008BD00000000100000204C180008D2
:10014C0080B582B000AF00F069FC00F014F800F04C
:10015C004DF800237B607B680B2B01DD00237B605B
:10016C007B685A1C7A60184600F074F84FF47A7069
:10017C0000F0B6FCEFE780B590B000AF07F11803C4
:10018C0028220021184601F053FB3B1D00221A6067
:10019C005A609A60DA601A610223BB610123BB6268
:1001AC001023FB6200237B6307F11803184600F051
:1001BC0033FF0346002B01D000F0B4FB0F237B6010
:1001CC000023BB600023FB6000233B6100237B61A9
:1001DC003B1D0021184601F0A1F90346002B01D06C
:1001EC0000F0A0FB00BF4037BD4680BD80B586B097
:1001FC0000AF07F1080300221A605A609A60DA60B7
:10020C00124B9B69114A43F0040393610F4B9B699A
:10021C0003F004037B607B6800224FF6F0710C48FE
:10022C0000F0E2FE4FF6F073BB600123FB6000238D
:10023C003B6102237B6107F108031946044800F077
:10024C0057FD00BF1837BD4680BD00BF00100240EF
:10025C000008014080B582B000AF78607B680B2B42
:10026C0000F25A8301A252F823F000BFA902000841
:10027C0033030008BD03000847040008D10400083C
:10028C005B050008E905000873060008FD06000878
:10029C0087070008110800089B080008012210219C
:1002AC00CD4800F0A1FE00222021CB4800F09CFE9E
:1002BC0000224021C84800F097FE00228021C64849
:1002CC0000F092FE00224FF48071C34800F08CFEC7
:1002DC0000224FF40071C04800F086FE00224FF45B
:1002EC008061BD4800F080FE00224FF40061BA48E6
:1002FC0000F07AFE00224FF48051B74800F074FEF3
:10030C0000224FF40051B44800F06EFE00224FF46E
:10031C008041B14800F068FE00224FF40041AE4825
:10032C0000F062FEF8E200221021AB4800F05CFE07
:10033C0001222021A84800F057FE00224021A648A7
:10034C0000F052FE00228021A34800F04DFE002256
:10035C004FF48071A04800F047FE00224FF400716A
:10036C009D4800F041FE00224FF480619A4800F055
:10037C003BFE00224FF40061974800F035FE00224E
:10038C004FF48051944800F02FFE00224FF400519E
:10039C00914800F029FE00224FF480418E4800F075
:1003AC0023FE00224FF400418B4800F01DFEB3E207
:1003BC0000221021884800F017FE002220218648D8
:1003CC0000F012FE01224021834800F00DFE0022B5
:1003DC008021814800F008FE00224FF480717E4895
:1003EC0000F002FE00224FF400717B4800F0FCFD8F
:1003FC0000224FF48061784800F0F6FD00224FF4A3
:10040C000061754800F0F0FD00224FF480517248F5
:10041C0000F0EAFD00224FF400516F4800F0E4FDBB
:10042C0000224FF480416C4800F0DEFD00224FF4B6
:10043C000041694800F0D8FD6EE2002210216648A8
:10044C0000F0D2FD00222021634800F0CDFD0022F7
:10045C004021614800F0C8FD012280215E4800F077
:10046C00C3FD00224FF480715B4800F0BDFD0022FB
:10047C004FF40071584800F0B7FD00224FF4806132
:10048C00554800F0B1FD00224FF40061524800F0D5
:10049C00ABFD00224FF480514F4800F0A5FD002227
:1004AC004FF400514C4800F09FFD00224FF4804166
:1004BC00494800F099FD00224FF40041464800F0F5
:1004CC0093FD29E200221021434800F08DFD00220B
:1004DC002021414800F088FD002240213E4800F0D8
:1004EC0083FD002280213C4800F07EFD01224FF468
:1004FC008071394800F078FD00224FF400713648C5
:10050C0000F072FD00224FF48061334800F06CFD66
:10051C0000224FF40061304800F066FD00224FF4D9
:10052C0080512D4800F060FD00224FF400512A4804
:10053C0000F05AFD00224FF48041274800F054FD92
:10054C0000224FF40041244800F04EFDE4E100226B
:10055C001021214800F048FD002220211E4800F007
:10056C0043FD002240211C4800F03EFD002280216A
:10057C00194800F039FD00224FF48071164800F044
:10058C0033FD01224FF40071134800F02DFD0022C1
:10059C004FF48061104800F027FD00224FF40061F9
:1005AC000D4800F021FD00224FF480510A4800F064
:1005BC001BFD00224FF40051074800F015FD0022EE
:1005CC004FF48041044800F00FFD00224FF400412D
:1005DC00014800F009FD9FE10008014000221021B4
:1005EC00CF4800F001FD00222021CD4800F0FCFC9A
:1005FC0000224021CA4800F0F7FC00228021C848A4
:10060C0000F0F2FC00224FF48071C54800F0ECFCC5
:10061C0000224FF40071C24800F0E6FC01224FF4B6
:10062C008061BF4800F0E0FC00224FF40061BC4840
:10063C0000F0DAFC00224FF48051B94800F0D4FCF1
:10064C0000224FF40051B64800F0CEFC00224FF4CB
:10065C008041B34800F0C8FC00224FF40041B04880
:10066C0000F0C2FC58E100221021AD4800F0BCFCA7
:10067C0000222021AA4800F0B7FC00224021A84803
:10068C0000F0B2FC00228021A54800F0ADFC002255
:10069C004FF48071A24800F0A7FC00224FF40071C7
:1006AC009F4800F0A1FC00224FF480619C4800F0B0
:1006BC009BFC01224FF40061994800F095FC00224C
:1006CC004FF48051964800F08FFC00224FF40051FB
:1006DC00934800F089FC00224FF48041904800F0D0
:1006EC0083FC00224FF400418D4800F07DFC13E1A7
:1006FC00002210218A4800F077FC00222021884833
:10070C0000F072FC00224021854800F06DFC0022B4
:10071C008021834800F068FC00224FF480718048EF
:10072C0000F062FC00224FF400717D4800F05CFC8C
:10073C0000224FF480617A4800F056FC00224FF4FE
:10074C000061774800F050FC01224FF4805174484E
:10075C0000F04AFC00224FF40051714800F044FCB8
:10076C0000224FF480416E4800F03EFC00224FF412
:10077C0000416B4800F038FCCEE0002210216848A4
:10078C0000F032FC00222021654800F02DFC0022F4
:10079C004021634800F028FC00228021604800F0D2
:1007AC0023FC00224FF480715D4800F01DFC0022F8
:1007BC004FF400715A4800F017FC00224FF480618E
:1007CC00574800F011FC00224FF40061544800F02F
:1007DC000BFC00224FF48051514800F005FC012223
:1007EC004FF400514E4800F0FFFB00224FF48041C3
:1007FC004B4800F0F9FB00224FF40041484800F050
:10080C00F3FB89E000221021454800F0EDFB0022AB
:10081C002021434800F0E8FB00224021404800F032
:10082C00E3FB002280213E4800F0DEFB00224FF467
:10083C0080713B4800F0D8FB00224FF4007138481F
:10084C0000F0D2FB00224FF48061354800F0CCFB65
:10085C0000224FF40061324800F0C6FB00224FF436
:10086C0080512F4800F0C0FB00224FF400512C485F
:10087C0000F0BAFB01224FF48041294800F0B4FB90
:10088C0000224FF40041264800F0AEFB44E0002269
:10089C001021234800F0A8FB00222021204800F062
:1008AC00A3FB002240211E4800F09EFB0022802169
:1008BC001B4800F099FB00224FF48071184800F09F
:1008CC0093FB00224FF40071154800F08DFB0022C1
:1008DC004FF48061124800F087FB00224FF4006156
:1008EC000F4800F081FB00224FF480510C4800F0BF
:1008FC007BFB00224FF40051094800F075FB0022ED
:10090C004FF48041064800F06FFB01224FF4004188
:10091C00034800F069FB00BF00BF0837BD4680BD2F
:10092C000008014080B400AF72B600BFFEE70000C3
:10093C0080B483B000AF0E4B9B690D4A43F00103AA
:10094C0093610B4B9B6903F001037B607B68084B45
:10095C00DB69074A43F08053D361054BDB6903F035
:10096C0080533B603B6800BF0C37BD4680BC704772
:10097C000010024080B400AFFEE780B400AFFEE789
:10098C0080B400AFFEE780B400AFFEE780B400AFE8
:10099C00FEE780B400AF00BFBD4680BC704780B49A
:1009AC0000AF00BFBD4680BC704780B400AF00BF35
:1009BC00BD4680BC704780B500AF00F075F800BF35
:1009CC0080BD80B400AF00BFBD4680BC7047000046
:1009DC000C480D490D4A002302E0D458C45004338E
:1009EC00C4188C42F9D30A4A0A4C002301E0136064
:1009FC000432A242FBD3FFF7E4FF00F0F5FEFFF751
:100A0C009FFB7047000000200C0000208C18000891
:100A1C000C0000202C000020FEE7000080B500AF89
:100A2C00084B1B68074A43F010031360032000F0C7
:100A3C002BF90F2000F008F8FFF77AFF0023184677
:100A4C0080BD00BF0020024080B582B000AF78604E
:100A5C00124B1A68124B1B7819464FF47A73B3FB7E
:100A6C00F1F3B2FBF3F3184600F035F90346002B13
:100A7C0001D001230EE07B680F2B0AD80022796885
:100A8C004FF0FF3000F00BF9064A7B68136000232F
:100A9C0000E0012318460837BD4680BD0000002049
:100AAC00080000200400002080B400AF054B1B7828
:100ABC001A46054B1B681344034A136000BFBD461E
:100ACC0080BC7047080000202800002080B400AFD4
:100ADC00024B1B681846BD4680BC7047280000209E
:100AEC0080B584B000AF7860FFF7F0FFB8607B682A
:100AFC00FB60FB68B3F1FF3F05D00A4B1B781A462D
:100B0C00FB681344FB6000BFFFF7E0FF0246BB68C5
:100B1C00D31AFA689A42F7D800BF00BF1037BD4607
:100B2C0080BD00BF0800002080B485B000AF7860A5
:100B3C007B6803F00703FB600C4BDB68BB60BA6897
:100B4C004FF6FF031340BB60FB681A02BB681343EC
:100B5C0043F0BF6343F40033BB60044ABB68D3600B
:100B6C0000BF1437BD4680BC704700BF00ED00E0ED
:100B7C0080B400AF044BDB681B0A03F00703184674
:100B8C00BD4680BC704700BF00ED00E080B483B070
:100B9C0000AF03463960FB7197F90730002B0ADB75
:100BAC003B68DAB20C4997F907301201D2B20B4408
:100BBC0083F800230AE03B68DAB20849FB7903F0BA
:100BCC000F03043B1201D2B20B441A7600BF0C3750
:100BDC00BD4680BC704700BF00E100E000ED00E0C6
:100BEC0080B489B000AFF860B9607A60FB6803F03C
:100BFC000703FB61FB69C3F10703042B28BF042324
:100C0C00BB61FB690433062B02D9FB69033B00E093
:100C1C0000237B614FF0FF32BB6902FA03F3DA4326
:100C2C00BB681A407B699A404FF0FF317B6901FA2F
:100C3C0003F3D9437B680B40134318462437BD4656
:100C4C0080BC704780B582B000AF78607B68013B98
:100C5C00B3F1807F01D301230FE00A4A7B68013B8B
:100C6C0053600F214FF0FF30FFF790FF054B002230
:100C7C009A60044B07221A60002318460837BD46B9
:100C8C0080BD00BF10E000E080B582B000AF78609E
:100C9C007868FFF749FF00BF0837BD4680BD80B5B7
:100CAC0086B000AF0346B9607A60FB7300237B61AA
:100CBC00FFF75EFF78617A68B9687869FFF790FF93
:100CCC00024697F90F3011461846FFF75FFF00BF39
:100CDC001837BD4680BD80B582B000AF78607868AB
:100CEC00FFF7B0FF034618460837BD4680BD00002D
:100CFC0080B48BB000AF7860396000237B62002336
:100D0C003B6261E101227B6A02FA03F3FB613B68FF
:100D1C001B68FA691340BB61BA69FB699A4240F0DF
:100D2C0050813B685B68974A93425ED0954A9342E8
:100D3C0075D8954A934258D0934A93426FD8934AA8
:100D4C00934252D0914A934269D8914A93424CD0E3
:100D5C008F4A934263D88F4A934246D08D4A93422E
:100D6C005DD8122B2AD8122B59D801A252F823F095
:100D7C00F70D0008D10D0008E30D0008250E000842
:100D8C002B0E00082B0E00082B0E00082B0E000853
:100D9C002B0E00082B0E00082B0E00082B0E000843
:100DAC002B0E00082B0E00082B0E00082B0E000833
:100DBC002B0E0008D90D0008ED0D0008764A934261
:100DCC0013D02CE03B68DB683B6229E03B68DB68B6
:100DDC0004333B6224E03B68DB6808333B621FE072
:100DEC003B68DB680C333B621AE03B689B68002B6A
:100DFC0002D104233B6213E03B689B68012B05D1B5
:100E0C0008233B627B68FA691A6109E008233B629C
:100E1C007B68FA695A6103E000233B6200E000BF83
:100E2C00BB69FF2B01D87B6801E07B6804337B61D5
:100E3C00BB69FF2B02D87B6A9B0002E07B6A083BF4
:100E4C009B003B617B691A680F213B6901FA03F334
:100E5C00DB431A40396A3B6901FA03F31A437B6995
:100E6C001A603B685B6803F08053002B00F0A9808C
:100E7C004A4B9B69494A43F001039361474B9B6979
:100E8C0003F00103BB60BB68454A7B6A9B080233D5
:100E9C0052F82330FB607B6A03F003039B000F22A4
:100EAC0002FA03F3DB43FA681340FB607B683D4AAC
:100EBC0093420DD07B683C4A934207D07B683B4AF7
:100ECC00934201D1022304E0032302E0012300E05A
:100EDC0000237A6A02F0030292009340FA681343EB
:100EEC00FB602F497B6A9B080233FA6841F8232088
:100EFC003B685B6803F48033002B06D02C4B1A68DC
:100F0C002B49BB6913430B6006E0294B1A68BB697C
:100F1C00DB43274913400B603B685B6803F40033E9
:100F2C00002B06D0224B5A682149BB6913434B60F6
:100F3C0006E01F4B5A68BB69DB431D4913404B60ED
:100F4C003B685B6803F48013002B06D0184B9A683F
:100F5C001749BB6913438B6006E0154B9A68BB6954
:100F6C00DB43134913408B603B685B6803F400134D
:100F7C00002B1FD00E4BDA680D49BB691343CB60B5
:100F8C001FE000BF000032100000311000002210E2
:100F9C00000021100000121000001110001002407F
:100FAC000000014000080140000C0140001001400D
:100FBC00000401400B4BDA68BB69DB430949134061
:100FCC00CB607B6A01337B623B681A687B6A22FACE
:100FDC0003F3002B7FF496AE00BF00BF2C37BD4649
:100FEC0080BC70470004014080B483B000AF7860CF
:100FFC000B467B8013467B707B78002B03D07A8862
:10100C007B681A6103E07B881A047B681A6100BF55
:10101C000C37BD4680BC704780B586B000AF786099
:10102C007B68002B01D1012372E27B681B6803F003
:10103C000103002B00F08780924B5B6803F00C03DC
:10104C00042B0CD08F4B5B6803F00C03082B12D1D4
:10105C008C4B5B6803F48033B3F5803F0BD1894B29
:10106C001B6803F40033002B6CD07B685B68002B8F
:10107C0068D101234CE27B685B68B3F5803F06D1F5
:10108C00804B1B687F4A43F4803313602EE07B68EF
:10109C005B68002B0CD17B4B1B687A4A23F48033A2
:1010AC001360784B1B68774A23F4802313601DE090
:1010BC007B685B68B3F5A02F0CD1724B1B68714A2F
:1010CC0043F4802313606F4B1B686E4A43F48033E8
:1010DC0013600BE06B4B1B686A4A23F4803313607C
:1010EC00684B1B68674A23F4802313607B685B683A
:1010FC00002B13D0FFF7EAFC386108E0FFF7E6FCA1
:10110C0002463B69D31A642B01D9032300E25D4BE1
:10111C001B6803F40033002BF0D014E0FFF7D6FC6F
:10112C00386108E0FFF7D2FC02463B69D31A642B06
:10113C0001D90323ECE1534B1B6803F40033002B60
:10114C00F0D100E000BF7B681B6803F00203002BAA
:10115C0063D04C4B5B6803F00C03002B0BD0494B5A
:10116C005B6803F00C03082B1CD1464B5B6803F443
:10117C008033002B16D1434B1B6803F00203002B6A
:10118C0005D07B681B69012B01D00123C0E13D4BCD
:10119C001B6823F0F8027B685B69DB003949134359
:1011AC000B603AE07B681B69002B20D0364B012288
:1011BC001A60FFF78BFC386108E0FFF787FC0246EA
:1011CC003B69D31A022B01D90323A1E12D4B1B68D8
:1011DC0003F00203002BF0D02A4B1B6823F0F8021B
:1011EC007B685B69DB00274913430B6015E0264BDA
:1011FC0000221A60FFF76AFC386108E0FFF766FC12
:10120C0002463B69D31A022B01D9032380E11D4B03
:10121C001B6803F00203002BF0D17B681B6803F002
:10122C000803002B3AD07B689B69002B19D0174B15
:10123C0001221A60FFF74AFC386108E0FFF746FC10
:10124C0002463B69D31A022B01D9032360E10D4BF3
:10125C005B6A03F00203002BF0D0012000F0A6FA29
:10126C001CE00A4B00221A60FFF730FC38610FE0DB
:10127C00FFF72CFC02463B69D31A022B08D9032337
:10128C0046E100BF0010024000004242800442428E
:10129C00924B5B6A03F00203002BE9D17B681B685D
:1012AC0003F00403002B00F0A6800023FB758B4B8E
:1012BC00DB6903F08053002B0DD1884BDB69874A27
:1012CC0043F08053D361854BDB6903F08053BB60E3
:1012DC00BB680123FB75824B1B6803F48073002BE6
:1012EC0018D17F4B1B687E4A43F480731360FFF761
:1012FC00EDFB386108E0FFF7E9FB02463B69D31AC6
:10130C00642B01D9032303E1754B1B6803F4807331
:10131C00002BF0D07B68DB68012B06D16F4B1B6A6E
:10132C006E4A43F0010313622DE07B68DB68002BEF
:10133C000CD16A4B1B6A694A23F001031362674B99
:10134C001B6A664A23F0040313621CE07B68DB68AB
:10135C00052B0CD1614B1B6A604A43F004031362EA
:10136C005E4B1B6A5D4A43F0010313620BE05B4B5F
:10137C001B6A5A4A23F001031362584B1B6A574AE3
:10138C0023F0040313627B68DB68002B15D0FFF796
:10139C009DFB38610AE0FFF799FB02463B69D31AC3
:1013AC0041F28832934201D90323B1E04B4B1B6AC3
:1013BC0003F00203002BEED014E0FFF787FB38613B
:1013CC000AE0FFF783FB02463B69D31A41F28832ED
:1013DC00934201D903239BE0404B1B6A03F00203A9
:1013EC00002BEED1FB7D012B05D13C4BDB693B4A3D
:1013FC0023F08053D3617B68DB69002B00F087807E
:10140C00364B5B6803F00C03082B61D07B68DB69FF
:10141C00022B46D1334B00221A60FFF757FB386181
:10142C0008E0FFF753FB02463B69D31A022B01D9A4
:10143C0003236DE0294B1B6803F00073002BF0D1E4
:10144C007B681B6AB3F5803F08D1244B5B6823F49F
:10145C0000327B689B68214913434B601F4B5B68D0
:10146C0023F474127B68196A7B685B6A0B431B4913
:10147C0013434B601B4B01221A60FFF727FB3861AB
:10148C0008E0FFF723FB02463B69D31A022B01D974
:10149C0003233DE0114B1B6803F00073002BF0D0CD
:1014AC0035E0104B00221A60FFF710FB386108E0A2
:1014BC00FFF70CFB02463B69D31A022B01D903231D
:1014CC0026E0064B1B6803F00073002BF0D11EE0E6
:1014DC007B68DB69012B07D1012319E00010024066
:1014EC0000700040600042420B4B5B68FB60FB6885
:1014FC0003F480327B681B6A9A4206D1FB6803F4C2
:10150C0070127B685B6A9A4201D0012300E00023D1
:10151C0018461837BD4680BD0010024080B584B017
:10152C0000AF786039607B68002B01D10123D0E0DB
:10153C006A4B1B6803F007033A689A4210D9674B51
:10154C001B6823F0070265493B6813430B60634B30
:10155C001B6803F007033A689A4201D00123B8E0F4
:10156C007B681B6803F00203002B20D07B681B6890
:10157C0003F00403002B05D0594B5B68584A43F425
:10158C00E06353607B681B6803F00803002B05D0F5
:10159C00534B5B68524A43F460535360504B5B6847
:1015AC0023F0F0027B689B684D4913434B607B68CA
:1015BC001B6803F00103002B40D07B685B68012B98
:1015CC0007D1474B1B6803F40033002B15D10123C3
:1015DC007FE07B685B68022B07D1414B1B6803F0F3
:1015EC000073002B09D1012373E03D4B1B6803F002
:1015FC000203002B01D101236BE0394B5B6823F014
:10160C0003027B685B68364913434B60FFF75EFA55
:10161C00F8600AE0FFF75AFA0246FB68D31A41F267
:10162C008832934201D9032353E02D4B5B6803F0BE
:10163C000C027B685B689B009A42EBD1274B1B68C2
:10164C0003F007033A689A4210D2244B1B6823F02C
:10165C00070222493B6813430B60204B1B6803F0C5
:10166C0007033A689A4201D0012332E07B681B6879
:10167C0003F00403002B08D0194B5B6823F4E062E1
:10168C007B68DB68164913434B607B681B6803F06F
:10169C000803002B09D0124B5B6823F460527B6863
:1016AC001B69DB000E4913434B6000F021F8024626
:1016BC000B4B5B681B0903F00F030A49CB5C22FA46
:1016CC0003F3094A1360094B1B681846FFF7BCF972
:1016DC00002318461037BD4680BD00BF00200240D5
:1016EC0000100240741800080000002004000020C4
:1016FC0090B48AB000AF294B3C1D0FCB84E80F008F
:10170C0040F201233B800023FB610023BB610023DB
:10171C007B6200237B6100233B62214B5B68FB6196
:10172C00FB6903F00C03042B02D0082B03D02BE035
:10173C001C4B3B622BE0FB699B0C03F00F03283323
:10174C003B4413F8243C7B61FB6903F48033002B8E
:10175C0012D0134B5B685B0C03F0010328333B4442
:10176C0013F8283CBB617B690E4A03FB02F2BB6990
:10177C00B2FBF3F37B6204E07B690B4A02FB03F3DD
:10178C007B627B6A3B6202E0064B3B6200BF3B6ABA
:10179C0018462837BD4690BC704700BF6418000837
:1017AC000010024000127A0000093D0080B485B0A0
:1017BC0000AF78600A4B1B680A4AA2FB03235B0A42
:1017CC007A6802FB03F3FB6000BFFB685A1EFA60E9
:1017DC00002BF9D100BF00BF1437BD4680BC704749
:1017EC0000000020D34D621070B500260C4D0D4C3E
:1017FC00641BA410A64209D100F022F800260A4D61
:10180C000A4C641BA410A64205D170BD55F8043BCC
:10181C0098470136EEE755F8043B98470136F2E756
:10182C008418000884180008841800088818000818
:10183C0003460244934200D1704703F8011BF9E7B9
:10184C00F8B500BFF8BC08BC9E467047F8B500BFA1
:08185C00F8BC08BC9E46704771
:1018640002030405060708090A0B0C0D0E0F1010DD
:10187400000000000000000001020304060708093C
:041884003101000826
:041888000D01000846
:0C188C000024F400100000000100000027
:04000005080009DD09
:00000001FF
